{
  "contractName": "FormData",
  "abi": [
    {
      "constant": true,
      "inputs": [
        {
          "internalType": "uint256",
          "name": "",
          "type": "uint256"
        }
      ],
      "name": "Object",
      "outputs": [
        {
          "internalType": "string",
          "name": "Name",
          "type": "string"
        },
        {
          "internalType": "string",
          "name": "CNIC",
          "type": "string"
        },
        {
          "internalType": "string",
          "name": "PhoneNumber",
          "type": "string"
        }
      ],
      "payable": false,
      "stateMutability": "view",
      "type": "function"
    },
    {
      "constant": false,
      "inputs": [
        {
          "internalType": "string",
          "name": "_Name",
          "type": "string"
        },
        {
          "internalType": "string",
          "name": "_CNIC",
          "type": "string"
        },
        {
          "internalType": "string",
          "name": "_PhoneNumber",
          "type": "string"
        }
      ],
      "name": "setData",
      "outputs": [],
      "payable": false,
      "stateMutability": "nonpayable",
      "type": "function"
    },
    {
      "constant": true,
      "inputs": [],
      "name": "getData",
      "outputs": [
        {
          "components": [
            {
              "internalType": "string",
              "name": "Name",
              "type": "string"
            },
            {
              "internalType": "string",
              "name": "CNIC",
              "type": "string"
            },
            {
              "internalType": "string",
              "name": "PhoneNumber",
              "type": "string"
            }
          ],
          "internalType": "struct FormData.Data",
          "name": "",
          "type": "tuple"
        }
      ],
      "payable": false,
      "stateMutability": "view",
      "type": "function"
    },
    {
      "constant": false,
      "inputs": [
        {
          "internalType": "bool",
          "name": "_value",
          "type": "bool"
        }
      ],
      "name": "confirmDownload",
      "outputs": [],
      "payable": false,
      "stateMutability": "nonpayable",
      "type": "function"
    }
  ],
  "bytecode": "0x608060405260006001556002805460ff1916905534801561001f57600080fd5b506108ee8061002f6000396000f3fe608060405234801561001057600080fd5b506004361061004c5760003560e01c8063280af7d3146100515780633bc5de3014610066578063419cf76c146100845780637c6714f014610097575b600080fd5b61006461005f366004610654565b6100b9565b005b61006e61013c565b60405161007b91906107cc565b60405180910390f35b61006461009236600461062e565b610324565b6100aa6100a53660046106e8565b610337565b60405161007b93929190610793565b6040805160608101825284815260208082018590528183018490526001805481019081905560009081528082529290922081518051929391926100ff9284920190610505565b5060208281015180516101189260018501920190610505565b5060408201518051610134916002840191602090910190610505565b505050505050565b610144610583565b60018054600090815260208181526040918290208251815460029581161561010002600019011694909404601f810183900490920284016080908101909352606084018281529092849284918401828280156101e15780601f106101b6576101008083540402835291602001916101e1565b820191906000526020600020905b8154815290600101906020018083116101c457829003601f168201915b50505050508152602001600182018054600181600116156101000203166002900480601f0160208091040260200160405190810160405280929190818152602001828054600181600116156101000203166002900480156102835780601f1061025857610100808354040283529160200191610283565b820191906000526020600020905b81548152906001019060200180831161026657829003601f168201915b5050509183525050600282810180546040805160206001841615610100026000190190931694909404601f810183900483028501830190915280845293810193908301828280156103155780601f106102ea57610100808354040283529160200191610315565b820191906000526020600020905b8154815290600101906020018083116102f857829003601f168201915b50505050508152505090505b90565b6002805460ff1916911515919091179055565b6000602081815291815260409081902080548251601f6002600019610100600186161502019093169290920491820185900485028101850190935280835290928391908301828280156103cb5780601f106103a0576101008083540402835291602001916103cb565b820191906000526020600020905b8154815290600101906020018083116103ae57829003601f168201915b505050505090806001018054600181600116156101000203166002900480601f0160208091040260200160405190810160405280929190818152602001828054600181600116156101000203166002900480156104695780601f1061043e57610100808354040283529160200191610469565b820191906000526020600020905b81548152906001019060200180831161044c57829003601f168201915b50505060028085018054604080516020601f60001961010060018716150201909416959095049283018590048502810185019091528181529596959450909250908301828280156104fb5780601f106104d0576101008083540402835291602001916104fb565b820191906000526020600020905b8154815290600101906020018083116104de57829003601f168201915b5050505050905083565b828054600181600116156101000203166002900490600052602060002090601f016020900481019282601f1061054657805160ff1916838001178555610573565b82800160010185558215610573579182015b82811115610573578251825591602001919060010190610558565b5061057f9291506105a4565b5090565b60405180606001604052806060815260200160608152602001606081525090565b61032191905b8082111561057f57600081556001016105aa565b80356105c98161088b565b92915050565b600082601f8301126105e057600080fd5b81356105f36105ee8261080b565b6107e4565b9150808252602083016020830185838301111561060f57600080fd5b61061a838284610845565b50505092915050565b80356105c9816108a2565b60006020828403121561064057600080fd5b600061064c84846105be565b949350505050565b60008060006060848603121561066957600080fd5b833567ffffffffffffffff81111561068057600080fd5b61068c868287016105cf565b935050602084013567ffffffffffffffff8111156106a957600080fd5b6106b5868287016105cf565b925050604084013567ffffffffffffffff8111156106d257600080fd5b6106de868287016105cf565b9150509250925092565b6000602082840312156106fa57600080fd5b600061064c8484610623565b600061071182610833565b61071b8185610837565b935061072b818560208601610851565b61073481610881565b9093019392505050565b80516060808452600091908401906107568282610706565b915050602083015184820360208601526107708282610706565b9150506040830151848203604086015261078a8282610706565b95945050505050565b606080825281016107a48186610706565b905081810360208301526107b88185610706565b9050818103604083015261078a8184610706565b602080825281016107dd818461073e565b9392505050565b60405181810167ffffffffffffffff8111828210171561080357600080fd5b604052919050565b600067ffffffffffffffff82111561082257600080fd5b506020601f91909101601f19160190565b5190565b90815260200190565b151590565b82818337506000910152565b60005b8381101561086c578181015183820152602001610854565b8381111561087b576000848401525b50505050565b601f01601f191690565b61089481610840565b811461089f57600080fd5b50565b6108948161032156fea365627a7a7231582081b9599ffde6a4c727f049186fc78032a241d36fe25031e1312e03977d4df17c6c6578706572696d656e74616cf564736f6c63430005100040",
  "source": "// SPDX-License-Identifier: MIT\npragma solidity >=0.4.22 <0.9.0;\npragma experimental ABIEncoderV2;\n\ncontract FormData {\n    struct Data {\n        string Name;\n        string CNIC;\n        string PhoneNumber;\n    }\n\n    mapping(uint256 => Data) public Object;\n\n    uint256 counter = 0;\n    bool canDownload = false;\n\n    function setData(\n        string memory _Name,\n        string memory _CNIC,\n        string memory _PhoneNumber\n    ) public {\n        Object[++counter] = Data(_Name, _CNIC, _PhoneNumber);\n    }\n\n    function getData() public view returns (Data memory) {\n        return (Object[counter]);\n    }\n\n    function confirmDownload(bool _value) public {\n        canDownload = _value;\n    }\n}\n\n// contract SimpleCounter {\n\n//     uint private count = 0;\n\n//     function setCounter(uint _value) public {\n//         count = _value;\n//     }\n\n//     function incrementCounter() public {\n//         count += 1;\n//     }\n//     function decrementCounter() public {\n//         count -= 1;\n//     }\n\n//     function getCount() public view returns (uint) {\n//         return count;\n//     }\n// }\n",
  "sourcePath": "/home/muzammilali28/Desktop/Blockchain_Project/contracts/FormData.sol",
  "compiler": {
    "name": "solc",
    "version": "0.5.16+commit.9c3226ce.Emscripten.clang"
  },
  "schemaVersion": "3.4.9",
  "updatedAt": "2022-09-23T13:38:22.317Z",
  "networkType": "ethereum",
  "devdoc": {
    "methods": {}
  },
  "userdoc": {
    "methods": {}
  }
}